:1000000091EF07F068961200046ED8CF05F0E0CFAC
:1000100006F00001E9CF0CF0EACF07F0E1CF08F0DD
:10002000E2CF09F0D9CF0AF0DACF0BF0F3CF12F01C
:10003000F4CF13F0FACF14F000C00EF001C00FF0AF
:1000400002C010F003C011F0A0AA2AEF00F0A1BA7C
:100050008BEF06F00EC000F00FC001F010C002F0F0
:1000600011C003F00CC0E9FF07C0EAFF078E08C00B
:10007000E1FF09C0E2FF0AC0D9FF0BC0DAFF12C0DE
:10008000F3FF13C0F4FF14C0FAFF045006C0E0FFF2
:1000900005C0D8FF1000F76AA60FF66E000EF72213
:1000A0000900F55012000003FFFFFFFFFFFFFFFFF5
:1000B000FFFFFFFFFFFFF76AC60FF66E000EF72285
:1000C0000900F55012004000200000000000000070
:1000D0000000000000000000000000000000000020
:1000E000000000000000F76AF60FF66E000EF7221F
:1000F0000900F550120005010905A1010901A1003F
:1001000009300931150025FF350046FF00650075EF
:100110000895028102C0050209BB150026FF007583
:100120000895018102050209C5150026FF00750822
:10013000950181020509190129081500250175019C
:100140009508550065008102C000F76A5A0FF66EE7
:10015000010EF7220900F55012000000F76A6C0F3B
:10016000F66E010EF7220900F55012005300F76AEF
:100170007E0FF66E010EF7220900F55012000902FB
:100180002900010100A0FA09040000010300000099
:10019000092101010000225300070581032000010D
:1001A0000705010320000100F76AB80FF66E010E83
:1001B000F7220900F55012000100F76ACA0FF66E27
:1001C000010EF7220900F55012001200F76ADC0F49
:1001D000F66E010EF7220900F5501200120100021E
:1001E000000000405E042600000101020001F76AE1
:1001F000FE0FF66E010EF7220900F55012000403FF
:10020000090426034A00650073007500730064004A
:1002100065006C00610054006F00720072006500A0
:100220002E0063006F006D002003470065006E0024
:1002300065007200690063002000470061006D00E6
:1002400065007000610064006D92699468A402D03A
:100250006894FCD797EF06F0400E0401016F040E7E
:10026000036F100E026F880E006F046B040E076F91
:10027000500E066F0001120070A002D0EDDF7090EA
:10028000689A9EEF06F06A6A6892A3EF06F04E90B5
:100290004DBE4E804D9E4D50100803E2000E016E83
:1002A00020D04EA010D0036A4D50F2CF4FF0F29EF6
:1002B000F2DE4FBEF28EFF0802E1000E01D0010E09
:1002C000016E0FD00ED0036A4D50F2CF4FF0F29E68
:1002D000E2DE4FBEF28EFF0802E1000E01D0010EF9
:1002E000016E1200036A4C50700FE96E0F0E03206E
:1002F000EA6EEF6A4CC04DF0CADF015218E04C5074
:10030000080DF3504E6AE96E040E4E24EA6EEF6A51
:100310004C50080DF3504E6A4D6E040E4D26000EE3
:100320004E224DC0E9FF040E4E24EA6EEF6A120021
:10033000010E4B6E4B500F0805E34BC04CF0D2DF63
:100340004B2AF8D71200256A246A416A41520AE111
:10035000036A4150260FE96E000E0320EA6EEF6A31
:10036000412AF4D7186A010E196E176A12006A6AD8
:10037000686A9F0E6B6E3D0E696E6E6AD9DFE3DFB1
:10038000160E706E68A602D03DDEFCD76D9864DF55
:10039000030E1F6EA8EF06F0698468986D82ADEFBA
:1003A00006F0689CB2EF06F046C020F0120020680C
:1003B0001200446A2450251046E044503F0843E3AD
:1003C0001A50FC0F2EE2040F2EEF02F023C003F0B0
:1003D0002250F2CF46F0F29ECADE46BEF28E456E45
:1003E00020D023C003F02250F2CF46F0F29E7BDEF5
:1003F00046BEF28E456E15D023C003F02250F2CFD8
:1004000046F0F29EF4DE46BEF28E456E0AD023C060
:1004100003F02250F2CF46F0F29ED8DE46BEF28EB6
:10042000456E222AD8B4232A2450D8B4250624069F
:100430004450442A036A500FE96E040E0320EA6E0A
:1004400045C0EFFFB7D72450251004E144504008C1
:1004500001E0176A44C046F0A7DF1200E824F76AFB
:10046000F736770FF66E040EF7220A00F550FA6E93
:100470000800F550F96ECC03E203F8030E04236A7A
:10048000226A1A6A04011351010A000109E0030AF1
:100490000DE0010A0FE0220A29E0030A4DE078D0BE
:1004A000256A120E246E030E1A6E74D0256A290E68
:1004B000246E70D0020E1A6E036A040112511B0FD3
:1004C000E96E000E0320EA6E236AEFCF22F023C00C
:1004D00003F02250F2CF44F0F29E000188DE44BEC9
:1004E000F28E036A246E03C025F054D0D890040124
:1004F0001235036AF2CF44F0F29E00015EDE09007D
:10050000F5CF03F044BEF28E226E03C023F0223CEE
:1005100002D023520FE023C003F02250F2CF44F068
:10052000F29E25DE44BEF28E036A246E03C025F0DF
:1005300031D002D03CDF3DD0D89004011435036A9D
:10054000F2CF44F0F29E000100DE0900F5CF03F087
:1005500044BEF28E226E03C023F0223C02D023520E
:1005600015E0010E1A6ED89004011435036AF2CF1B
:1005700044F0F29E0001F2DD0900F5CF03F044BE25
:10058000F28E246E03C025F005D002D010DF11D00A
:100590000EDF0FD00401175308E1255203E1245068
:1005A000165D03E2256A16C424F0010E176E0001E1
:1005B00000DF1200435204E1040E1F6EB9DED1D0F9
:1005C000050E1F6E040E466E900E456E010E446EB3
:1005D00044500F08D8A0C5D044C04CF083DE476A11
:1005E000036A4450F2CF4BF0F29E55DD4BBEF28EC3
:1005F000FF0859E0040E476ED8904434036AF2CFE6
:100600004BF0F29E58DD0900F5CF03F04BBEF28EA1
:10061000486E03C049F04450080DF3504C6A4B6ECD
:10062000010E4B24016E000E4C20036E01C0E9FF49
:10063000040E0324EA6E48C0EFFF4450080DF35047
:100640004C6A4B6E020E4B24016E000E4C20036E62
:1006500001C0E9FF040E0324EA6E46C0ECFFED5230
:1006600045C0EFFFD8904434036AF2CF4BF0F29EBE
:1006700022DD0900F5CF03F04BBEF28E4526035074
:100680004622880E4A6E49A001D04A8049A201D074
:100690004A824450080DF3504C6AE96E040E4C2413
:1006A000EA6E4AC0EFFF036A4450F2CF4BF0F29E6D
:1006B000F2DC4BBEF28EFF0839E047824450080D51
:1006C000F3504C6A4B6E040E4B26000E4C22020E69
:1006D0004B24016E000E4C20036E01C0E9FF040E96
:1006E0000324EA6E46C0ECFFED5245C0EFFFD89000
:1006F0004434036AF2CF4BF0F29EDDDC0900F5CF03
:1007000003F04BBEF28E4526035046224450080D9E
:10071000F3504C6A4B6E040E4B26000E4C224BC01D
:10072000E9FF040E4C24EA6E400EEF6E47500608B7
:1007300002E10E0E476E036A4450F2CF4BF0F29E78
:10074000AADC4BBEF28E010801E04788036A4450E0
:10075000700FE96E0F0E0320EA6E47C0EFFF442AC8
:1007600037D700EF04F004011151000A00010DE039
:10077000010A14E0020A1FE0060A29E0030A2EE03B
:100780000E0A2EE0010A32E040D019C050F40401F4
:10079000516B020E466E000107DE38D00401122DA7
:1007A00007D0010E1916466A0001FEDD03D00401D0
:1007B0000001FDDD2BD00401122D06D01982466AFE
:1007C0000001F2DD03D004010001F1DD1FD0020EB3
:1007D000176E12C421F0466AE7DD18D050DE16D03D
:1007E00018C050F4010E466EDFDD10D00401125126
:1007F000010809E312C418F012C443F00001DAD66C
:10080000466AD2DD0401000101D0D1DD13EF05F00D
:1008100018C043F004011151000A000107E00A0A60
:100820000DE0010A2DE00D0A3DE03ED00401506BC1
:10083000516B020E466E0001B7DD37D043521EE009
:10084000010E435C036AF2CF44F0F29EADDC44BE7D
:10085000F28E016E0401145DD8A002D000010ED00A
:10086000036A1451260FE96E000E0320EA6EEFCFE3
:1008700050F4010E466E000197DD01D098DD15D0D1
:1008800043520EE0036A04011451260FE96E000E74
:100890000320EA6E12C4EFFF466A000185DD01D035
:1008A00086DD03D0ECDD01D082DD13EF05F044904E
:1008B00043BE4480439E44A011D04350080DF350E2
:1008C000466A456E040E4526000E462245C0E9FFE5
:1008D000040E4624EA6E880EEF6E09D04350080DD0
:1008E000F350466AE96E040E4624EA6EEF6AD9EFC9
:1008F00004F0449043BE4480439E44A011D0435032
:10090000080DF350466A456E040E4526000E462239
:1009100045C0E9FF040E4624EA6E840EEF6E0AD04D
:100920004350080DF350466AE96E040E4624EA6E01
:10093000840EEF6EDFEF04F0449043BE4480439E8C
:1009400044A011D04350080DF350476A466E040E80
:100950004626000E472246C0E9FF040E4724EA6EF1
:10096000EFCF45F00AD04350080DF350476AE96EC7
:10097000040E4724EA6EEFCF45F045AE02D045B4F1
:1009800002D0000E01D0010E016EE9EF04F014C494
:100990004DF07DDC015228E004011151010A0001F3
:1009A00005E0020A09E0030A0DE01DD014C443F07B
:1009B0007ED7466AF9DC18D014C443F09AD7466A49
:1009C000F3DC12D00401506B516B14C443F00001EE
:1009D000B3D7015204E0010E0401506F0001020E72
:1009E000466EE2DC01D0E3DC13EF05F004011151A7
:1009F0000001DDDC13EF05F0176A040110517F0BD5
:100A0000000A000107E0010A07E0030A07E0230AE1
:100A100007E008D0A8D607D0FBD605D0B8D703D0BA
:100A2000E5D701D0C4DC3BEF06F04350080DF3508E
:100A3000496AE96E040E4924EA6EEFCF45F044504E
:100A4000020806E145AC02D0446A02D0010E446EB1
:100A50004450030813E1840E456E4350080DF350D3
:100A6000496A486E040E4826000E492248C0E9FF34
:100A7000040E4924EA6E840EEF6E07D0442C03D096
:100A8000C80E456E02D0880E456ED8904334036A76
:100A9000F2CF48F0F29E5BEC00F00900F5CF03F0D6
:100AA00048BEF28E466E03C047F04350080DF35027
:100AB000496A486E010E4824016E000E4920036EFB
:100AC00001C0E9FF040E0324EA6E46C0EFFF47A011
:100AD00001D0458047A201D045824350080DF35014
:100AE000496AE96E040E4924EA6E45C0EFFF120020
:100AF000036A4850700FE96E0F0E0320EA6EEF5242
:100B000012E04850080DF3504A6A496E040E492617
:100B1000000E4A2249C0E9FF040E4A24EA6EEFCFD4
:100B20004BF04BAE02D0000E01D0010E016E120050
:100B300043C048F0DDDF015263E04350080DF3503D
:100B4000496A486E040E4826000E4922010E4824C8
:100B5000016E000E4920036E01C0E9FF040E03245C
:100B6000EA6E44C0EFFF4650020817E14350080DFB
:100B7000F350496A486E040E4826000E492248C0C8
:100B8000E9FF040E4924EA6EEFCF47F047AC02D0EC
:100B9000466A02D0010E466E13D04650040810E19A
:100BA0004350080DF350496AE96E040E4924EA6E79
:100BB000EFCF47F047AC03D0010E466E01D0466A36
:100BC000462C03D0C80E476E02D0880E476E45A053
:100BD00001D0478045A201D047824350080DF35011
:100BE000496A486E040E4826000E492248C0E9FFB3
:100BF000040E4924EA6E47C0EFFF010E016E02D0D9
:100C0000000E016E1200435200E1120044C06EFF5C
:100C1000445203E0040E1F6E02D0020E1F6E16EF48
:100C200006F0186A176A21C044F0F0D723EF06F0E7
:100C3000435209E1172C03D0D9EC01F004D017502E
:100C40000208D8B4EED712001E30416E4132413254
:100C50001F0E41161E5241E1040100513C0B426E31
:100C6000430E0017425034081EE10451800B01E08E
:100C7000046B0001C1D66D98203C05D0436A030E79
:100C8000446ED3DE0ED0436A020E446ECEDE205098
:100C9000FE0807E0436A456A20C044F0040E466E31
:100CA00047DF18D004014250040815E1436A0001EF
:100CB000AADF436A020E446EB8DE2050FE080AE046
:100CC000203C01D007D0436A456A20C044F0010EA1
:100CD000466E2EDF04011CD000011E5004080EE1F8
:100CE0002068436AA5DF203C01D007D0436A456AEB
:100CF00020C044F0020E466E1BDF09D01EB404D0A3
:100D000041C043F080DF03D041C043F091DF0401D4
:100D10000001BCEF06F0A19A1F52D8B433D068523C
:100D2000D8B430D068A403D069B424EF01F06DB218
:100D300029D068AA03D069BA3CEF01F068A203D0B9
:100D400069B243EF01F068A003D069B0B7EF01F0DA
:100D500068A803D069B8CCEF01F068AC03D069BCD7
:100D6000D1EF01F0406A68A608D069A606D06CCF22
:100D70001EF002EC00F068D701D004D04050402AA9
:100D80000308F1E22AEF00F00F0E926E936E000E50
:100D9000946EADEF07F06D6A696A080E6F6E94503D
:100DA0003009946E1F6A166AF2BE168EF29EA3EC8C
:100DB00001F016BEF28EDEEF06F0EDD7AEEF07F0D3
:100DC000166AF2BE168EF29EA3EC01F016BEF28EEB
:100DD0006D6A140E6F6E696A6D86010E1F6EF4EFF8
:100DE00006F06DB601D0ECD71F2C0BD06DBA09D030
:100DF000686A696AA08AC00EF212110E696E020E4C
:100E00001F6EAFEF07F01850016EB0EF07F0166AD3
:100E1000F2BE168EF29E2FC048F06ADE16BEF28E2B
:100E2000015242E02F50080DF350386A376E040E1D
:100E30003726000E3822020E3724016E000E3820AD
:100E4000036E01C0E9FF040E0324EA6EECCF36F016
:100E5000ED52EFCF35F036C0EAFF35C0E9FF31C0C3
:100E6000E2FF30C0E1FF33C002F032C001F00152B6
:100E700002E0022A02D0025206E0E6CFEEFF012E87
:100E8000FCD7022EFAD7166AF2BE168EF29E2FC03B
:100E900043F033C045F032C044F034C046F048DE81
:100EA00016BEF28E015002D0000E016E1200949C0C
:100EB0008B9C949E8B8E938081B002D02C8001D02D
:100EC0002C90938281B202D02C8401D02C949384F4
:100ED00081B402D02C8801D02C98938681B602D0A0
:100EE0002C8C01D02C9C949C8B8C949E8B9E9380FC
:100EF00081B002D02C8201D02C92938281B202D098
:100F00002C8601D02C96938481B402D02C8A01D0F7
:100F10002C9A938681B602D02C8E01D02C9E21EF84
:100F200008F0F86AD09E078E2C6AC150C00B0F09DA
:100F3000C16E070EB46E1B6A040E1C6E2A0E1D6E67
:100F40002D6A2E6AC150C00B0F09C16EC050C00B74
:100F50000609C06EC09EC28017D72FD742D753D77D
:100F60000152D8B47BD0000E016EC250C30B0110E9
:100F7000C26E4F0E006E002EFED700D0C282C2B2EB
:100F8000FED7C4CF27F0010E2F6E316A270E306EC8
:100F9000336A050E326E020E346E39DF040E016EB6
:100FA000C250C30B0110C26E4F0E006E002EFED752
:100FB00000D0C282C2B2FED7C4CF28F0010E2F6E7D
:100FC000316A270E306E336A050E326E020E346EB1
:100FD0001EDF080E016EC250C30B0110C26E4F0E11
:100FE000006E002EFED700D0C282C2B2FED7C4CFA0
:100FF00029F0010E2F6E316A270E306E336A050E0E
:10100000326E020E346E03DF0C0E016EC250C30B43
:101010000110C26E4F0E006E002EFED700D0C282AD
:10102000C2B2FED7C4CF2AF0010E2F6E316A270E4E
:10103000306E336A050E326E020E346EE8DE2B6AB5
:1010400036D72CC02BF0010E2F6E316A270E306E72
:10105000336A050E326E020E346ED9DE7FD703007E
:020000040030CA
:0E00000024CE3E1E0087810000C00FE00F409E
:00000001FF
;PIC18F2550
;CRC=80B3  CREATED="04-oct-24 17:54"
